:1000000013C02DC02CC02BC02AC029C028C027C0B7
:1000100026C025C024C023C022C021C020C01FC0CC
:100020001EC01DC01CC01BC011241FBECFEFD1E0DD
:10003000DEBFCDBF11E0A0E0B1E0E2E5F2E002C03A
:1000400005900D92AE34B107D9F711E0AEE4B1E0FE
:1000500001C01D92AF34B107E1F7BAD0F8C0D0CFDC
:10006000439A8AEF90E00197F1F743980895439AF5
:1000700082EE94E00197F1F74398089542984198F1
:10008000982F92959F709BB9439A22EE34E0F90124
:100090003197F1F743988F708BB9439AC901019753
:1000A000F1F7439808954298419A982F92959F703E
:1000B0009BB9439A2AEF30E0F9013197F1F7439861
:1000C0008F708BB9439AC9010197F1F7439808954E
:1000D0008068D4DF0895EF92FF920F931F93CF9320
:1000E000DF93182F092F80E0F3DF212F302FC90174
:1000F0007C0100E0E70110E08991D5DF1F5F193036
:10010000D9F788E2E5DF0F5F88E090E0E80EF91E9E
:10011000023081F7DF91CF911F910F91FF90EF9007
:100120000895DF93CF93CDB7DEB7CD54D0400FB64F
:10013000F894DEBF0FBECDBFBE016F5F7F4FDB0106
:10014000E0E0F1E089E001900D928150E1F7FE01DD
:100150003A9688E0DF011D928A95E9F79E012E5EAE
:100160003F4FD901E1E1F1E08CE301900D92815024
:10017000E1F781EE8CA340914E01D901A40FB11D8E
:10018000FE0139969E012F5E3F4F8D918193E217BC
:10019000F307D9F7842F8F5F80934E01833310F0DC
:1001A00010924E01CB0197DF28E833E149E150E09E
:1001B000CA010197F1F721503040D1F7C35BDF4FFF
:1001C0000FB6F894DEBF0FBECDBFCF91DF9108957B
:1001D0008EE087B98FE08AB983E08BB9439A2AEF22
:1001E00030E0C9010197F1F7439884EC99E0FC01F4
:1001F0003197F1F7439AF9013197F1F74398FC01F0
:100200003197F1F7439AF9013197F1F74398FC01DF
:100210003197F1F7439AF9013197F1F74398019734
:10022000F1F782E08BB9439AC9010197F1F743983E
:1002300081E024DF88E222DF80E120DF8CE01EDF26
:1002400086E01CDF80E044DF6CDF6BDFFDCFF894DD
:02025000FFCFDE
:1002520020206E65746C2020000000000000000069
:10026200006C2E6669202020204A7575736F204D20
:100272006574736176756F726920202020747572BF
:100282006B752E6861636B6C61622E66692020203B
:0E029200206E65746C2E66692020202000000E
:00000001FF
