:1000000013C02DC02CC02BC02AC029C028C027C0B7
:1000100026C025C024C023C022C021C020C01FC0CC
:100020001EC01DC01CC01BC011241FBECFEFD1E0DD
:10003000DEBFCDBF11E0A0E0B1E0E4E2F2E002C03B
:1000400005900D92A036B107D9F711E0A0E6B1E016
:1000500001C01D92A236B107E1F7A3D0E1C0D0CF15
:10006000439A8AEF90E00197F1F743980895439AF5
:1000700082EE94E00197F1F74398089542984198F1
:10008000982F92959F709BB9439A22EE34E0F90124
:100090003197F1F743988F708BB9439AC901019753
:1000A000F1F7439808954298419A982F92959F703E
:1000B0009BB9439A2AEF30E0F9013197F1F7439861
:1000C0008F708BB9439AC9010197F1F7439808954E
:1000D0008068D4DF0895EF92FF920F931F93CF9320
:1000E000DF93182F092F80E0F3DF212F302FC90174
:1000F0007C0100E0E70110E08991D5DF1F5F193036
:10010000D9F788E2E5DF0F5F88E090E0E80EF91E9E
:10011000023081F7DF91CF911F910F91FF90EF9007
:10012000089581EE80931B0190916101A92FB0E0A9
:10013000A95FBE4FE7E5F1E08D91819381E0EF3556
:10014000F807D1F7892F8F5F809361018F3310F00B
:10015000109261018FE491E0BEDF60916001E62FB3
:10016000F0E0E050FF4F908180916101981729F0F5
:1001700084ED90E30197F1F7089528E93AE349E126
:1001800050E0CA010197F1F721503040D1F7862F96
:100190008F5F80936001873009F0089510926001AD
:1001A00008958EE087B98FE08AB983E08BB9439ACE
:1001B0002AEF30E0C9010197F1F7439884EC99E008
:1001C000FC013197F1F7439AF9013197F1F7439820
:1001D000FC013197F1F7439AF9013197F1F7439810
:1001E000FC013197F1F7439AF9013197F1F7439800
:1001F0000197F1F782E08BB9439AC9010197F1F7B2
:10020000439881E03BDF88E239DF80E137DF8CE033
:1002100035DF86E033DF80E05BDF83DF82DFFDCF29
:04022000F894FFCF80
:100224000811131F272A3820202020202020204AAC
:100234007575736F2020204D6574736176756F72C8
:10024400692020202020207475726B752E686163EC
:100254006B6C61622E666920202020202020206E95
:1002640065746C2E66692020202020202020002028
:10027400206E65746C202000000000000000000067
:00000001FF
